{"contracts/SocialPosts.sol":{"SocialPosts":{"abi":[{"anonymous":false,"inputs":[{"indexed":true,"internalType":"address","name":"author","type":"address"},{"indexed":false,"internalType":"string","name":"cid","type":"string"},{"indexed":false,"internalType":"string","name":"zone","type":"string"}],"name":"PostCreated","type":"event"},{"inputs":[{"internalType":"string","name":"cid","type":"string"},{"internalType":"string","name":"zone","type":"string"}],"name":"anchorPost","outputs":[],"stateMutability":"nonpayable","type":"function"}],"evm":{"bytecode":{"linkReferences":{},"object":"608060405234801561001057600080fd5b506101d8806100206000396000f3fe608060405234801561001057600080fd5b506004361061002b5760003560e01c806382174f8414610030575b600080fd5b61004361003e3660046100db565b610045565b005b336001600160a01b03167fa1bdfd2a20015444206fea4ec9356a9be21a503d15b9aefa345d6554e2ba678b858585856040516100849493929190610170565b60405180910390a250505050565b60008083601f8401126100a457600080fd5b50813567ffffffffffffffff8111156100bc57600080fd5b6020830191508360208285010111156100d457600080fd5b9250929050565b600080600080604085870312156100f157600080fd5b843567ffffffffffffffff8082111561010957600080fd5b61011588838901610092565b9096509450602087013591508082111561012e57600080fd5b5061013b87828801610092565b95989497509550505050565b81835281816020850137506000828201602090810191909152601f909101601f19169091010190565b604081526000610184604083018688610147565b8281036020840152610197818587610147565b97965050505050505056fea2646970667358221220d9582483c21213fec0981e064d15bc66c19f1e0fa9772548513408788038bbae64736f6c63430008170033","opcodes":"PUSH1 0x80 PUSH1 0x40 MSTORE CALLVALUE DUP1 ISZERO PUSH2 0x10 JUMPI PUSH1 0x0 DUP1 REVERT JUMPDEST POP PUSH2 0x1D8 DUP1 PUSH2 0x20 PUSH1 0x0 CODECOPY PUSH1 0x0 RETURN INVALID PUSH1 0x80 PUSH1 0x40 MSTORE CALLVALUE DUP1 ISZERO PUSH2 0x10 JUMPI PUSH1 0x0 DUP1 REVERT JUMPDEST POP PUSH1 0x4 CALLDATASIZE LT PUSH2 0x2B JUMPI PUSH1 0x0 CALLDATALOAD PUSH1 0xE0 SHR DUP1 PUSH4 0x82174F84 EQ PUSH2 0x30 JUMPI JUMPDEST PUSH1 0x0 DUP1 REVERT JUMPDEST PUSH2 0x43 PUSH2 0x3E CALLDATASIZE PUSH1 0x4 PUSH2 0xDB JUMP JUMPDEST PUSH2 0x45 JUMP JUMPDEST STOP JUMPDEST CALLER PUSH1 0x1 PUSH1 0x1 PUSH1 0xA0 SHL SUB AND PUSH32 0xA1BDFD2A20015444206FEA4EC9356A9BE21A503D15B9AEFA345D6554E2BA678B DUP6 DUP6 DUP6 DUP6 PUSH1 0x40 MLOAD PUSH2 0x84 SWAP5 SWAP4 SWAP3 SWAP2 SWAP1 PUSH2 0x170 JUMP JUMPDEST PUSH1 0x40 MLOAD DUP1 SWAP2 SUB SWAP1 LOG2 POP POP POP POP JUMP JUMPDEST PUSH1 0x0 DUP1 DUP4 PUSH1 0x1F DUP5 ADD SLT PUSH2 0xA4 JUMPI PUSH1 0x0 DUP1 REVERT JUMPDEST POP DUP2 CALLDATALOAD PUSH8 0xFFFFFFFFFFFFFFFF DUP2 GT ISZERO PUSH2 0xBC JUMPI PUSH1 0x0 DUP1 REVERT JUMPDEST PUSH1 0x20 DUP4 ADD SWAP2 POP DUP4 PUSH1 0x20 DUP3 DUP6 ADD ADD GT ISZERO PUSH2 0xD4 JUMPI PUSH1 0x0 DUP1 REVERT JUMPDEST SWAP3 POP SWAP3 SWAP1 POP JUMP JUMPDEST PUSH1 0x0 DUP1 PUSH1 0x0 DUP1 PUSH1 0x40 DUP6 DUP8 SUB SLT ISZERO PUSH2 0xF1 JUMPI PUSH1 0x0 DUP1 REVERT JUMPDEST DUP5 CALLDATALOAD PUSH8 0xFFFFFFFFFFFFFFFF DUP1 DUP3 GT ISZERO PUSH2 0x109 JUMPI PUSH1 0x0 DUP1 REVERT JUMPDEST PUSH2 0x115 DUP9 DUP4 DUP10 ADD PUSH2 0x92 JUMP JUMPDEST SWAP1 SWAP7 POP SWAP5 POP PUSH1 0x20 DUP8 ADD CALLDATALOAD SWAP2 POP DUP1 DUP3 GT ISZERO PUSH2 0x12E JUMPI PUSH1 0x0 DUP1 REVERT JUMPDEST POP PUSH2 0x13B DUP8 DUP3 DUP9 ADD PUSH2 0x92 JUMP JUMPDEST SWAP6 SWAP9 SWAP5 SWAP8 POP SWAP6 POP POP POP POP JUMP JUMPDEST DUP2 DUP4 MSTORE DUP2 DUP2 PUSH1 0x20 DUP6 ADD CALLDATACOPY POP PUSH1 0x0 DUP3 DUP3 ADD PUSH1 0x20 SWAP1 DUP2 ADD SWAP2 SWAP1 SWAP2 MSTORE PUSH1 0x1F SWAP1 SWAP2 ADD PUSH1 0x1F NOT AND SWAP1 SWAP2 ADD ADD SWAP1 JUMP JUMPDEST PUSH1 0x40 DUP2 MSTORE PUSH1 0x0 PUSH2 0x184 PUSH1 0x40 DUP4 ADD DUP7 DUP9 PUSH2 0x147 JUMP JUMPDEST DUP3 DUP2 SUB PUSH1 0x20 DUP5 ADD MSTORE PUSH2 0x197 DUP2 DUP6 DUP8 PUSH2 0x147 JUMP JUMPDEST SWAP8 SWAP7 POP POP POP POP POP POP POP JUMP INVALID LOG2 PUSH5 0x6970667358 0x22 SLT KECCAK256 0xD9 PC 0x24 DUP4 0xC2 SLT SGT INVALID 0xC0 SWAP9 0x1E MOD 0x4D ISZERO 0xBC PUSH7 0xC19F1E0FA97725 BASEFEE MLOAD CALLVALUE ADDMOD PUSH25 0x8038BBAE64736F6C6343000817003300000000000000000000 "},"methodIdentifiers":{"anchorPost(string,string)":"82174f84"}},"storageLayout":{"storage":[],"types":null}}}}