{"contracts/QNSController.sol":{"QNSController":{"abi":[{"anonymous":false,"inputs":[{"indexed":true,"internalType":"bytes32","name":"commitHash","type":"bytes32"},{"indexed":true,"internalType":"bytes32","name":"node","type":"bytes32"},{"indexed":true,"internalType":"address","name":"owner","type":"address"},{"indexed":false,"internalType":"bytes32","name":"secret","type":"bytes32"},{"indexed":false,"internalType":"uint64","name":"expiresAt","type":"uint64"}],"name":"Commit","type":"event"},{"anonymous":false,"inputs":[{"indexed":true,"internalType":"bytes32","name":"commitHash","type":"bytes32"},{"indexed":true,"internalType":"bytes32","name":"node","type":"bytes32"},{"indexed":true,"internalType":"address","name":"owner","type":"address"}],"name":"Reveal","type":"event"},{"inputs":[{"internalType":"bytes32","name":"node","type":"bytes32"},{"internalType":"address","name":"owner","type":"address"},{"internalType":"bytes32","name":"secret","type":"bytes32"},{"internalType":"uint64","name":"expiresAt","type":"uint64"}],"name":"commit","outputs":[],"stateMutability":"nonpayable","type":"function"},{"inputs":[{"internalType":"bytes32","name":"node","type":"bytes32"},{"internalType":"address","name":"owner","type":"address"},{"internalType":"bytes32","name":"secret","type":"bytes32"},{"internalType":"uint64","name":"expiresAt","type":"uint64"}],"name":"computeCommitHash","outputs":[{"internalType":"bytes32","name":"","type":"bytes32"}],"stateMutability":"pure","type":"function"},{"inputs":[{"internalType":"bytes32","name":"commitHash","type":"bytes32"}],"name":"getPending","outputs":[{"components":[{"internalType":"address","name":"owner","type":"address"},{"internalType":"bytes32","name":"secret","type":"bytes32"},{"internalType":"uint64","name":"expiresAt","type":"uint64"}],"internalType":"struct QNSController.Pending","name":"","type":"tuple"}],"stateMutability":"view","type":"function"},{"inputs":[{"internalType":"bytes32","name":"node","type":"bytes32"},{"internalType":"address","name":"owner","type":"address"},{"internalType":"bytes32","name":"secret","type":"bytes32"},{"internalType":"uint64","name":"expiresAt","type":"uint64"}],"name":"reveal","outputs":[],"stateMutability":"nonpayable","type":"function"}],"evm":{"bytecode":{"linkReferences":{},"object":"608060405234801561001057600080fd5b50610559806100206000396000f3fe608060405234801561001057600080fd5b506004361061004c5760003560e01c806378de7d19146100515780638742a257146100f65780638a39c95214610117578063b72372951461012c575b600080fd5b6100bc61005f3660046104a7565b604080516060808201835260008083526020808401829052928401819052938452838252928290208251938401835280546001600160a01b031684526001810154918401919091526002015467ffffffffffffffff169082015290565b6040805182516001600160a01b03168152602080840151908201529181015167ffffffffffffffff16908201526060015b60405180910390f35b6101096101043660046104c0565b61013f565b6040519081526020016100ed565b61012a6101253660046104c0565b610190565b005b61012a61013a3660046104c0565b61034f565b604080516020808201969096526001600160a01b039490941684820152606084019290925267ffffffffffffffff166080808401919091528151808403909101815260a09092019052805191012090565b6001600160a01b0383166101db5760405162461bcd60e51b815260206004820152600d60248201526c6f776e6572206973207a65726f60981b60448201526064015b60405180910390fd5b428167ffffffffffffffff16116102285760405162461bcd60e51b81526020600482015260116024820152706d75737420626520696e2066757475726560781b60448201526064016101d2565b60006102368585858561013f565b6000818152602081905260409020549091506001600160a01b0316156102925760405162461bcd60e51b8152602060048201526011602482015270185b1c9958591e4818dbdb5b5a5d1d1959607a1b60448201526064016101d2565b604080516060810182526001600160a01b03868116808352602080840188815267ffffffffffffffff88811686880181815260008a8152808652899020975188546001600160a01b03191697169690961787559151600187015593516002909501805467ffffffffffffffff191695909416949094179092558351878152918201929092529091879184917ffa963ce02a33be065727905a8200d7cf9f155d99014113d8afbfc479bef9f6be910160405180910390a45050505050565b600061035d8585858561013f565b60008181526020818152604091829020825160608101845281546001600160a01b031680825260018301549382019390935260029091015467ffffffffffffffff1692810192909252919250906103e75760405162461bcd60e51b815260206004820152600e60248201526d1b9bc81cdd58da0818dbdb5b5a5d60921b60448201526064016101d2565b42816040015167ffffffffffffffff1610156104365760405162461bcd60e51b815260206004820152600e60248201526d18dbdb5b5a5d08195e1c1a5c995960921b60448201526064016101d2565b60008281526020819052604080822080546001600160a01b031916815560018101839055600201805467ffffffffffffffff19169055516001600160a01b03871691889185917fcbf69115d2578c39a61e3fbae091c1bef2ac3a3e0f200984f969371299e337e591a4505050505050565b6000602082840312156104b957600080fd5b5035919050565b600080600080608085870312156104d657600080fd5b8435935060208501356001600160a01b03811681146104f457600080fd5b925060408501359150606085013567ffffffffffffffff8116811461051857600080fd5b93969295509093505056fea264697066735822122075f000a1902cdc67f4cb5ad56b65198aa75808a7fbd3de77ca4eccc95e1abdca64736f6c63430008170033","opcodes":"PUSH1 0x80 PUSH1 0x40 MSTORE CALLVALUE DUP1 ISZERO PUSH2 0x10 JUMPI PUSH1 0x0 DUP1 REVERT JUMPDEST POP PUSH2 0x559 DUP1 PUSH2 0x20 PUSH1 0x0 CODECOPY PUSH1 0x0 RETURN INVALID PUSH1 0x80 PUSH1 0x40 MSTORE CALLVALUE DUP1 ISZERO PUSH2 0x10 JUMPI PUSH1 0x0 DUP1 REVERT JUMPDEST POP PUSH1 0x4 CALLDATASIZE LT PUSH2 0x4C JUMPI PUSH1 0x0 CALLDATALOAD PUSH1 0xE0 SHR DUP1 PUSH4 0x78DE7D19 EQ PUSH2 0x51 JUMPI DUP1 PUSH4 0x8742A257 EQ PUSH2 0xF6 JUMPI DUP1 PUSH4 0x8A39C952 EQ PUSH2 0x117 JUMPI DUP1 PUSH4 0xB7237295 EQ PUSH2 0x12C JUMPI JUMPDEST PUSH1 0x0 DUP1 REVERT JUMPDEST PUSH2 0xBC PUSH2 0x5F CALLDATASIZE PUSH1 0x4 PUSH2 0x4A7 JUMP JUMPDEST PUSH1 0x40 DUP1 MLOAD PUSH1 0x60 DUP1 DUP3 ADD DUP4 MSTORE PUSH1 0x0 DUP1 DUP4 MSTORE PUSH1 0x20 DUP1 DUP5 ADD DUP3 SWAP1 MSTORE SWAP3 DUP5 ADD DUP2 SWAP1 MSTORE SWAP4 DUP5 MSTORE DUP4 DUP3 MSTORE SWAP3 DUP3 SWAP1 KECCAK256 DUP3 MLOAD SWAP4 DUP5 ADD DUP4 MSTORE DUP1 SLOAD PUSH1 0x1 PUSH1 0x1 PUSH1 0xA0 SHL SUB AND DUP5 MSTORE PUSH1 0x1 DUP2 ADD SLOAD SWAP2 DUP5 ADD SWAP2 SWAP1 SWAP2 MSTORE PUSH1 0x2 ADD SLOAD PUSH8 0xFFFFFFFFFFFFFFFF AND SWAP1 DUP3 ADD MSTORE SWAP1 JUMP JUMPDEST PUSH1 0x40 DUP1 MLOAD DUP3 MLOAD PUSH1 0x1 PUSH1 0x1 PUSH1 0xA0 SHL SUB AND DUP2 MSTORE PUSH1 0x20 DUP1 DUP5 ADD MLOAD SWAP1 DUP3 ADD MSTORE SWAP2 DUP2 ADD MLOAD PUSH8 0xFFFFFFFFFFFFFFFF AND SWAP1 DUP3 ADD MSTORE PUSH1 0x60 ADD JUMPDEST PUSH1 0x40 MLOAD DUP1 SWAP2 SUB SWAP1 RETURN JUMPDEST PUSH2 0x109 PUSH2 0x104 CALLDATASIZE PUSH1 0x4 PUSH2 0x4C0 JUMP JUMPDEST PUSH2 0x13F JUMP JUMPDEST PUSH1 0x40 MLOAD SWAP1 DUP2 MSTORE PUSH1 0x20 ADD PUSH2 0xED JUMP JUMPDEST PUSH2 0x12A PUSH2 0x125 CALLDATASIZE PUSH1 0x4 PUSH2 0x4C0 JUMP JUMPDEST PUSH2 0x190 JUMP JUMPDEST STOP JUMPDEST PUSH2 0x12A PUSH2 0x13A CALLDATASIZE PUSH1 0x4 PUSH2 0x4C0 JUMP JUMPDEST PUSH2 0x34F JUMP JUMPDEST PUSH1 0x40 DUP1 MLOAD PUSH1 0x20 DUP1 DUP3 ADD SWAP7 SWAP1 SWAP7 MSTORE PUSH1 0x1 PUSH1 0x1 PUSH1 0xA0 SHL SUB SWAP5 SWAP1 SWAP5 AND DUP5 DUP3 ADD MSTORE PUSH1 0x60 DUP5 ADD SWAP3 SWAP1 SWAP3 MSTORE PUSH8 0xFFFFFFFFFFFFFFFF AND PUSH1 0x80 DUP1 DUP5 ADD SWAP2 SWAP1 SWAP2 MSTORE DUP2 MLOAD DUP1 DUP5 SUB SWAP1 SWAP2 ADD DUP2 MSTORE PUSH1 0xA0 SWAP1 SWAP3 ADD SWAP1 MSTORE DUP1 MLOAD SWAP2 ADD KECCAK256 SWAP1 JUMP JUMPDEST PUSH1 0x1 PUSH1 0x1 PUSH1 0xA0 SHL SUB DUP4 AND PUSH2 0x1DB JUMPI PUSH1 0x40 MLOAD PUSH3 0x461BCD PUSH1 0xE5 SHL DUP2 MSTORE PUSH1 0x20 PUSH1 0x4 DUP3 ADD MSTORE PUSH1 0xD PUSH1 0x24 DUP3 ADD MSTORE PUSH13 0x6F776E6572206973207A65726F PUSH1 0x98 SHL PUSH1 0x44 DUP3 ADD MSTORE PUSH1 0x64 ADD JUMPDEST PUSH1 0x40 MLOAD DUP1 SWAP2 SUB SWAP1 REVERT JUMPDEST TIMESTAMP DUP2 PUSH8 0xFFFFFFFFFFFFFFFF AND GT PUSH2 0x228 JUMPI PUSH1 0x40 MLOAD PUSH3 0x461BCD PUSH1 0xE5 SHL DUP2 MSTORE PUSH1 0x20 PUSH1 0x4 DUP3 ADD MSTORE PUSH1 0x11 PUSH1 0x24 DUP3 ADD MSTORE PUSH17 0x6D75737420626520696E20667574757265 PUSH1 0x78 SHL PUSH1 0x44 DUP3 ADD MSTORE PUSH1 0x64 ADD PUSH2 0x1D2 JUMP JUMPDEST PUSH1 0x0 PUSH2 0x236 DUP6 DUP6 DUP6 DUP6 PUSH2 0x13F JUMP JUMPDEST PUSH1 0x0 DUP2 DUP2 MSTORE PUSH1 0x20 DUP2 SWAP1 MSTORE PUSH1 0x40 SWAP1 KECCAK256 SLOAD SWAP1 SWAP2 POP PUSH1 0x1 PUSH1 0x1 PUSH1 0xA0 SHL SUB AND ISZERO PUSH2 0x292 JUMPI PUSH1 0x40 MLOAD PUSH3 0x461BCD PUSH1 0xE5 SHL DUP2 MSTORE PUSH1 0x20 PUSH1 0x4 DUP3 ADD MSTORE PUSH1 0x11 PUSH1 0x24 DUP3 ADD MSTORE PUSH17 0x185B1C9958591E4818DBDB5B5A5D1D1959 PUSH1 0x7A SHL PUSH1 0x44 DUP3 ADD MSTORE PUSH1 0x64 ADD PUSH2 0x1D2 JUMP JUMPDEST PUSH1 0x40 DUP1 MLOAD PUSH1 0x60 DUP2 ADD DUP3 MSTORE PUSH1 0x1 PUSH1 0x1 PUSH1 0xA0 SHL SUB DUP7 DUP2 AND DUP1 DUP4 MSTORE PUSH1 0x20 DUP1 DUP5 ADD DUP9 DUP2 MSTORE PUSH8 0xFFFFFFFFFFFFFFFF DUP9 DUP2 AND DUP7 DUP9 ADD DUP2 DUP2 MSTORE PUSH1 0x0 DUP11 DUP2 MSTORE DUP1 DUP7 MSTORE DUP10 SWAP1 KECCAK256 SWAP8 MLOAD DUP9 SLOAD PUSH1 0x1 PUSH1 0x1 PUSH1 0xA0 SHL SUB NOT AND SWAP8 AND SWAP7 SWAP1 SWAP7 OR DUP8 SSTORE SWAP2 MLOAD PUSH1 0x1 DUP8 ADD SSTORE SWAP4 MLOAD PUSH1 0x2 SWAP1 SWAP6 ADD DUP1 SLOAD PUSH8 0xFFFFFFFFFFFFFFFF NOT AND SWAP6 SWAP1 SWAP5 AND SWAP5 SWAP1 SWAP5 OR SWAP1 SWAP3 SSTORE DUP4 MLOAD DUP8 DUP2 MSTORE SWAP2 DUP3 ADD SWAP3 SWAP1 SWAP3 MSTORE SWAP1 SWAP2 DUP8 SWAP2 DUP5 SWAP2 PUSH32 0xFA963CE02A33BE065727905A8200D7CF9F155D99014113D8AFBFC479BEF9F6BE SWAP2 ADD PUSH1 0x40 MLOAD DUP1 SWAP2 SUB SWAP1 LOG4 POP POP POP POP POP JUMP JUMPDEST PUSH1 0x0 PUSH2 0x35D DUP6 DUP6 DUP6 DUP6 PUSH2 0x13F JUMP JUMPDEST PUSH1 0x0 DUP2 DUP2 MSTORE PUSH1 0x20 DUP2 DUP2 MSTORE PUSH1 0x40 SWAP2 DUP3 SWAP1 KECCAK256 DUP3 MLOAD PUSH1 0x60 DUP2 ADD DUP5 MSTORE DUP2 SLOAD PUSH1 0x1 PUSH1 0x1 PUSH1 0xA0 SHL SUB AND DUP1 DUP3 MSTORE PUSH1 0x1 DUP4 ADD SLOAD SWAP4 DUP3 ADD SWAP4 SWAP1 SWAP4 MSTORE PUSH1 0x2 SWAP1 SWAP2 ADD SLOAD PUSH8 0xFFFFFFFFFFFFFFFF AND SWAP3 DUP2 ADD SWAP3 SWAP1 SWAP3 MSTORE SWAP2 SWAP3 POP SWAP1 PUSH2 0x3E7 JUMPI PUSH1 0x40 MLOAD PUSH3 0x461BCD PUSH1 0xE5 SHL DUP2 MSTORE PUSH1 0x20 PUSH1 0x4 DUP3 ADD MSTORE PUSH1 0xE PUSH1 0x24 DUP3 ADD MSTORE PUSH14 0x1B9BC81CDD58DA0818DBDB5B5A5D PUSH1 0x92 SHL PUSH1 0x44 DUP3 ADD MSTORE PUSH1 0x64 ADD PUSH2 0x1D2 JUMP JUMPDEST TIMESTAMP DUP2 PUSH1 0x40 ADD MLOAD PUSH8 0xFFFFFFFFFFFFFFFF AND LT ISZERO PUSH2 0x436 JUMPI PUSH1 0x40 MLOAD PUSH3 0x461BCD PUSH1 0xE5 SHL DUP2 MSTORE PUSH1 0x20 PUSH1 0x4 DUP3 ADD MSTORE PUSH1 0xE PUSH1 0x24 DUP3 ADD MSTORE PUSH14 0x18DBDB5B5A5D08195E1C1A5C9959 PUSH1 0x92 SHL PUSH1 0x44 DUP3 ADD MSTORE PUSH1 0x64 ADD PUSH2 0x1D2 JUMP JUMPDEST PUSH1 0x0 DUP3 DUP2 MSTORE PUSH1 0x20 DUP2 SWAP1 MSTORE PUSH1 0x40 DUP1 DUP3 KECCAK256 DUP1 SLOAD PUSH1 0x1 PUSH1 0x1 PUSH1 0xA0 SHL SUB NOT AND DUP2 SSTORE PUSH1 0x1 DUP2 ADD DUP4 SWAP1 SSTORE PUSH1 0x2 ADD DUP1 SLOAD PUSH8 0xFFFFFFFFFFFFFFFF NOT AND SWAP1 SSTORE MLOAD PUSH1 0x1 PUSH1 0x1 PUSH1 0xA0 SHL SUB DUP8 AND SWAP2 DUP9 SWAP2 DUP6 SWAP2 PUSH32 0xCBF69115D2578C39A61E3FBAE091C1BEF2AC3A3E0F200984F969371299E337E5 SWAP2 LOG4 POP POP POP POP POP POP JUMP JUMPDEST PUSH1 0x0 PUSH1 0x20 DUP3 DUP5 SUB SLT ISZERO PUSH2 0x4B9 JUMPI PUSH1 0x0 DUP1 REVERT JUMPDEST POP CALLDATALOAD SWAP2 SWAP1 POP JUMP JUMPDEST PUSH1 0x0 DUP1 PUSH1 0x0 DUP1 PUSH1 0x80 DUP6 DUP8 SUB SLT ISZERO PUSH2 0x4D6 JUMPI PUSH1 0x0 DUP1 REVERT JUMPDEST DUP5 CALLDATALOAD SWAP4 POP PUSH1 0x20 DUP6 ADD CALLDATALOAD PUSH1 0x1 PUSH1 0x1 PUSH1 0xA0 SHL SUB DUP2 AND DUP2 EQ PUSH2 0x4F4 JUMPI PUSH1 0x0 DUP1 REVERT JUMPDEST SWAP3 POP PUSH1 0x40 DUP6 ADD CALLDATALOAD SWAP2 POP PUSH1 0x60 DUP6 ADD CALLDATALOAD PUSH8 0xFFFFFFFFFFFFFFFF DUP2 AND DUP2 EQ PUSH2 0x518 JUMPI PUSH1 0x0 DUP1 REVERT JUMPDEST SWAP4 SWAP7 SWAP3 SWAP6 POP SWAP1 SWAP4 POP POP JUMP INVALID LOG2 PUSH5 0x6970667358 0x22 SLT KECCAK256 PUSH22 0xF000A1902CDC67F4CB5AD56B65198AA75808A7FBD3DE PUSH24 0xCA4ECCC95E1ABDCA64736F6C634300081700330000000000 "},"methodIdentifiers":{"commit(bytes32,address,bytes32,uint64)":"8a39c952","computeCommitHash(bytes32,address,bytes32,uint64)":"8742a257","getPending(bytes32)":"78de7d19","reveal(bytes32,address,bytes32,uint64)":"b7237295"}},"storageLayout":{"storage":[{"astId":14,"contract":"contracts/QNSController.sol:QNSController","label":"_pending","offset":0,"slot":"0","type":"t_mapping(t_bytes32,t_struct(Pending)9_storage)"}],"types":{"t_address":{"encoding":"inplace","label":"address","numberOfBytes":"20"},"t_bytes32":{"encoding":"inplace","label":"bytes32","numberOfBytes":"32"},"t_mapping(t_bytes32,t_struct(Pending)9_storage)":{"encoding":"mapping","key":"t_bytes32","label":"mapping(bytes32 => struct QNSController.Pending)","numberOfBytes":"32","value":"t_struct(Pending)9_storage"},"t_struct(Pending)9_storage":{"encoding":"inplace","label":"struct QNSController.Pending","members":[{"astId":4,"contract":"contracts/QNSController.sol:QNSController","label":"owner","offset":0,"slot":"0","type":"t_address"},{"astId":6,"contract":"contracts/QNSController.sol:QNSController","label":"secret","offset":0,"slot":"1","type":"t_bytes32"},{"astId":8,"contract":"contracts/QNSController.sol:QNSController","label":"expiresAt","offset":0,"slot":"2","type":"t_uint64"}],"numberOfBytes":"96"},"t_uint64":{"encoding":"inplace","label":"uint64","numberOfBytes":"8"}}}}}}