{
  "_format": "hh-sol-artifact-1",
  "contractName": "QNSRegistry",
  "sourceName": "contracts/QNSRegistry.sol",
  "abi": [
    {
      "inputs": [],
      "name": "AccessControlBadConfirmation",
      "type": "error"
    },
    {
      "inputs": [
        {
          "internalType": "address",
          "name": "account",
          "type": "address"
        },
        {
          "internalType": "bytes32",
          "name": "neededRole",
          "type": "bytes32"
        }
      ],
      "name": "AccessControlUnauthorizedAccount",
      "type": "error"
    },
    {
      "inputs": [
        {
          "internalType": "address",
          "name": "target",
          "type": "address"
        }
      ],
      "name": "AddressEmptyCode",
      "type": "error"
    },
    {
      "inputs": [
        {
          "internalType": "address",
          "name": "implementation",
          "type": "address"
        }
      ],
      "name": "ERC1967InvalidImplementation",
      "type": "error"
    },
    {
      "inputs": [],
      "name": "ERC1967NonPayable",
      "type": "error"
    },
    {
      "inputs": [],
      "name": "FailedCall",
      "type": "error"
    },
    {
      "inputs": [],
      "name": "InvalidInitialization",
      "type": "error"
    },
    {
      "inputs": [],
      "name": "NotInitializing",
      "type": "error"
    },
    {
      "inputs": [],
      "name": "UUPSUnauthorizedCallContext",
      "type": "error"
    },
    {
      "inputs": [
        {
          "internalType": "bytes32",
          "name": "slot",
          "type": "bytes32"
        }
      ],
      "name": "UUPSUnsupportedProxiableUUID",
      "type": "error"
    },
    {
      "anonymous": false,
      "inputs": [
        {
          "indexed": false,
          "internalType": "uint64",
          "name": "version",
          "type": "uint64"
        }
      ],
      "name": "Initialized",
      "type": "event"
    },
    {
      "anonymous": false,
      "inputs": [
        {
          "indexed": true,
          "internalType": "bytes32",
          "name": "node",
          "type": "bytes32"
        },
        {
          "indexed": false,
          "internalType": "address",
          "name": "owner",
          "type": "address"
        }
      ],
      "name": "OwnerChanged",
      "type": "event"
    },
    {
      "anonymous": false,
      "inputs": [
        {
          "indexed": true,
          "internalType": "bytes32",
          "name": "node",
          "type": "bytes32"
        },
        {
          "indexed": false,
          "internalType": "address",
          "name": "resolver",
          "type": "address"
        }
      ],
      "name": "ResolverChanged",
      "type": "event"
    },
    {
      "anonymous": false,
      "inputs": [
        {
          "indexed": true,
          "internalType": "bytes32",
          "name": "role",
          "type": "bytes32"
        },
        {
          "indexed": true,
          "internalType": "bytes32",
          "name": "previousAdminRole",
          "type": "bytes32"
        },
        {
          "indexed": true,
          "internalType": "bytes32",
          "name": "newAdminRole",
          "type": "bytes32"
        }
      ],
      "name": "RoleAdminChanged",
      "type": "event"
    },
    {
      "anonymous": false,
      "inputs": [
        {
          "indexed": true,
          "internalType": "bytes32",
          "name": "role",
          "type": "bytes32"
        },
        {
          "indexed": true,
          "internalType": "address",
          "name": "account",
          "type": "address"
        },
        {
          "indexed": true,
          "internalType": "address",
          "name": "sender",
          "type": "address"
        }
      ],
      "name": "RoleGranted",
      "type": "event"
    },
    {
      "anonymous": false,
      "inputs": [
        {
          "indexed": true,
          "internalType": "bytes32",
          "name": "role",
          "type": "bytes32"
        },
        {
          "indexed": true,
          "internalType": "address",
          "name": "account",
          "type": "address"
        },
        {
          "indexed": true,
          "internalType": "address",
          "name": "sender",
          "type": "address"
        }
      ],
      "name": "RoleRevoked",
      "type": "event"
    },
    {
      "anonymous": false,
      "inputs": [
        {
          "indexed": true,
          "internalType": "bytes32",
          "name": "node",
          "type": "bytes32"
        },
        {
          "indexed": false,
          "internalType": "uint64",
          "name": "ttl",
          "type": "uint64"
        }
      ],
      "name": "TTLChanged",
      "type": "event"
    },
    {
      "anonymous": false,
      "inputs": [
        {
          "indexed": true,
          "internalType": "address",
          "name": "implementation",
          "type": "address"
        }
      ],
      "name": "Upgraded",
      "type": "event"
    },
    {
      "inputs": [],
      "name": "ADMIN_ROLE",
      "outputs": [
        {
          "internalType": "bytes32",
          "name": "",
          "type": "bytes32"
        }
      ],
      "stateMutability": "view",
      "type": "function"
    },
    {
      "inputs": [],
      "name": "DEFAULT_ADMIN_ROLE",
      "outputs": [
        {
          "internalType": "bytes32",
          "name": "",
          "type": "bytes32"
        }
      ],
      "stateMutability": "view",
      "type": "function"
    },
    {
      "inputs": [],
      "name": "UPGRADE_INTERFACE_VERSION",
      "outputs": [
        {
          "internalType": "string",
          "name": "",
          "type": "string"
        }
      ],
      "stateMutability": "view",
      "type": "function"
    },
    {
      "inputs": [
        {
          "internalType": "bytes32",
          "name": "role",
          "type": "bytes32"
        }
      ],
      "name": "getRoleAdmin",
      "outputs": [
        {
          "internalType": "bytes32",
          "name": "",
          "type": "bytes32"
        }
      ],
      "stateMutability": "view",
      "type": "function"
    },
    {
      "inputs": [
        {
          "internalType": "bytes32",
          "name": "role",
          "type": "bytes32"
        },
        {
          "internalType": "address",
          "name": "account",
          "type": "address"
        }
      ],
      "name": "grantRole",
      "outputs": [],
      "stateMutability": "nonpayable",
      "type": "function"
    },
    {
      "inputs": [
        {
          "internalType": "bytes32",
          "name": "role",
          "type": "bytes32"
        },
        {
          "internalType": "address",
          "name": "account",
          "type": "address"
        }
      ],
      "name": "hasRole",
      "outputs": [
        {
          "internalType": "bool",
          "name": "",
          "type": "bool"
        }
      ],
      "stateMutability": "view",
      "type": "function"
    },
    {
      "inputs": [
        {
          "internalType": "address",
          "name": "admin",
          "type": "address"
        }
      ],
      "name": "initialize",
      "outputs": [],
      "stateMutability": "nonpayable",
      "type": "function"
    },
    {
      "inputs": [
        {
          "internalType": "bytes32",
          "name": "node",
          "type": "bytes32"
        }
      ],
      "name": "ownerOf",
      "outputs": [
        {
          "internalType": "address",
          "name": "",
          "type": "address"
        }
      ],
      "stateMutability": "view",
      "type": "function"
    },
    {
      "inputs": [],
      "name": "proxiableUUID",
      "outputs": [
        {
          "internalType": "bytes32",
          "name": "",
          "type": "bytes32"
        }
      ],
      "stateMutability": "view",
      "type": "function"
    },
    {
      "inputs": [
        {
          "internalType": "bytes32",
          "name": "role",
          "type": "bytes32"
        },
        {
          "internalType": "address",
          "name": "callerConfirmation",
          "type": "address"
        }
      ],
      "name": "renounceRole",
      "outputs": [],
      "stateMutability": "nonpayable",
      "type": "function"
    },
    {
      "inputs": [
        {
          "internalType": "bytes32",
          "name": "node",
          "type": "bytes32"
        }
      ],
      "name": "resolverOf",
      "outputs": [
        {
          "internalType": "address",
          "name": "",
          "type": "address"
        }
      ],
      "stateMutability": "view",
      "type": "function"
    },
    {
      "inputs": [
        {
          "internalType": "bytes32",
          "name": "role",
          "type": "bytes32"
        },
        {
          "internalType": "address",
          "name": "account",
          "type": "address"
        }
      ],
      "name": "revokeRole",
      "outputs": [],
      "stateMutability": "nonpayable",
      "type": "function"
    },
    {
      "inputs": [
        {
          "internalType": "bytes32",
          "name": "node",
          "type": "bytes32"
        },
        {
          "internalType": "address",
          "name": "owner",
          "type": "address"
        }
      ],
      "name": "setOwner",
      "outputs": [],
      "stateMutability": "nonpayable",
      "type": "function"
    },
    {
      "inputs": [
        {
          "internalType": "bytes32",
          "name": "node",
          "type": "bytes32"
        },
        {
          "internalType": "address",
          "name": "resolver",
          "type": "address"
        }
      ],
      "name": "setResolver",
      "outputs": [],
      "stateMutability": "nonpayable",
      "type": "function"
    },
    {
      "inputs": [
        {
          "internalType": "bytes32",
          "name": "node",
          "type": "bytes32"
        },
        {
          "internalType": "uint64",
          "name": "ttl",
          "type": "uint64"
        }
      ],
      "name": "setTTL",
      "outputs": [],
      "stateMutability": "nonpayable",
      "type": "function"
    },
    {
      "inputs": [
        {
          "internalType": "bytes4",
          "name": "interfaceId",
          "type": "bytes4"
        }
      ],
      "name": "supportsInterface",
      "outputs": [
        {
          "internalType": "bool",
          "name": "",
          "type": "bool"
        }
      ],
      "stateMutability": "view",
      "type": "function"
    },
    {
      "inputs": [
        {
          "internalType": "bytes32",
          "name": "node",
          "type": "bytes32"
        }
      ],
      "name": "ttlOf",
      "outputs": [
        {
          "internalType": "uint64",
          "name": "",
          "type": "uint64"
        }
      ],
      "stateMutability": "view",
      "type": "function"
    },
    {
      "inputs": [
        {
          "internalType": "address",
          "name": "newImplementation",
          "type": "address"
        },
        {
          "internalType": "bytes",
          "name": "data",
          "type": "bytes"
        }
      ],
      "name": "upgradeToAndCall",
      "outputs": [],
      "stateMutability": "payable",
      "type": "function"
    }
  ],
  "bytecode": "0x60a06040523060805234801561001457600080fd5b5060805161101b61003e600039600081816108ff015281816109280152610a80015261101b6000f3fe6080604052600436106101095760003560e01c806375b238fc11610095578063ad3cb1cc11610064578063ad3cb1cc146102e0578063c4d66de81461031e578063c677966d1461033e578063d547741f14610377578063e72c8a311461039757600080fd5b806375b238fc1461023b5780637dd564111461025d57806391d14854146102ab578063a217fddf146102cb57600080fd5b80632f2ff15d116100dc5780632f2ff15d146101b357806336568abe146101d35780634f1ef286146101f357806352d1902d146102065780635b0fc9c31461021b57600080fd5b806301ffc9a71461010e57806314ab9038146101435780631896f70a14610165578063248a9ca314610185575b600080fd5b34801561011a57600080fd5b5061012e610129366004610d3e565b6103f1565b60405190151581526020015b60405180910390f35b34801561014f57600080fd5b5061016361015e366004610d68565b610428565b005b34801561017157600080fd5b50610163610180366004610dc1565b6104b5565b34801561019157600080fd5b506101a56101a0366004610ded565b61052b565b60405190815260200161013a565b3480156101bf57600080fd5b506101636101ce366004610dc1565b61054d565b3480156101df57600080fd5b506101636101ee366004610dc1565b61056f565b610163610201366004610e1c565b6105a7565b34801561021257600080fd5b506101a56105c6565b34801561022757600080fd5b50610163610236366004610dc1565b6105e3565b34801561024757600080fd5b506101a5600080516020610fc683398151915281565b34801561026957600080fd5b50610293610278366004610ded565b6000908152602081905260409020546001600160a01b031690565b6040516001600160a01b03909116815260200161013a565b3480156102b757600080fd5b5061012e6102c6366004610dc1565b610656565b3480156102d757600080fd5b506101a5600081565b3480156102ec57600080fd5b50610311604051806040016040528060058152602001640352e302e360dc1b81525081565b60405161013a9190610f02565b34801561032a57600080fd5b50610163610339366004610f35565b61068e565b34801561034a57600080fd5b50610293610359366004610ded565b6000908152602081905260409020600101546001600160a01b031690565b34801561038357600080fd5b50610163610392366004610dc1565b6107aa565b3480156103a357600080fd5b506103d86103b2366004610ded565b600090815260208190526040902060010154600160a01b900467ffffffffffffffff1690565b60405167ffffffffffffffff909116815260200161013a565b60006001600160e01b03198216637965db0b60e01b148061042257506301ffc9a760e01b6001600160e01b03198316145b92915050565b600080516020610fc6833981519152610440816107c6565b60008381526020818152604091829020600101805467ffffffffffffffff60a01b1916600160a01b67ffffffffffffffff871690810291909117909155915191825284917ff61ca601ab5014cbdbae708f392599dd04e8a0c284ee70e27da694026a845fe791015b60405180910390a2505050565b600080516020610fc68339815191526104cd816107c6565b6000838152602081815260409182902060010180546001600160a01b0319166001600160a01b038616908117909155915191825284917f9536641548723c985801eef80fb38603b837722ccd8b61d42f6247c28afd335991016104a8565b6000908152600080516020610fa6833981519152602052604090206001015490565b6105568261052b565b61055f816107c6565b61056983836107d3565b50505050565b6001600160a01b03811633146105985760405163334bd91960e11b815260040160405180910390fd5b6105a28282610878565b505050565b6105af6108f4565b6105b88261099b565b6105c282826109b3565b5050565b60006105d0610a75565b50600080516020610f8683398151915290565b600080516020610fc68339815191526105fb816107c6565b6000838152602081815260409182902080546001600160a01b0319166001600160a01b038616908117909155915191825284917fd3d10d874a10020c2bce719499d1fd8756d880b128eb2945dd01b3830854e71691016104a8565b6000918252600080516020610fa6833981519152602090815260408084206001600160a01b0393909316845291905290205460ff1690565b6000610698610abe565b805490915060ff600160401b820416159067ffffffffffffffff166000811580156106c05750825b905060008267ffffffffffffffff1660011480156106dd5750303b155b9050811580156106eb575080155b156107095760405163f92ee8a960e01b815260040160405180910390fd5b845467ffffffffffffffff19166001178555831561073357845460ff60401b1916600160401b1785555b61073b610ae7565b610743610ae7565b61075b600080516020610fc6833981519152876107d3565b5083156107a257845460ff60401b19168555604051600181527fc7f505b2f371ae2175ee4913f4499e1f2633a7b5936321eed1cdaeb6115181d29060200160405180910390a15b505050505050565b6107b38261052b565b6107bc816107c6565b6105698383610878565b6107d08133610aef565b50565b6000600080516020610fa68339815191526107ee8484610656565b61086e576000848152602082815260408083206001600160a01b03871684529091529020805460ff191660011790556108243390565b6001600160a01b0316836001600160a01b0316857f2f8788117e7eff1d82e926ec794901d17c78024a50270940304540a733656f0d60405160405180910390a46001915050610422565b6000915050610422565b6000600080516020610fa68339815191526108938484610656565b1561086e576000848152602082815260408083206001600160a01b0387168085529252808320805460ff1916905551339287917ff6391f5c32d9c69d2a47ea670b442974b53935d1edc7fd64eb21e047a839171b9190a46001915050610422565b306001600160a01b037f000000000000000000000000000000000000000000000000000000000000000016148061097b57507f00000000000000000000000000000000000000000000000000000000000000006001600160a01b031661096f600080516020610f86833981519152546001600160a01b031690565b6001600160a01b031614155b156109995760405163703e46dd60e11b815260040160405180910390fd5b565b600080516020610fc68339815191526105c2816107c6565b816001600160a01b03166352d1902d6040518163ffffffff1660e01b8152600401602060405180830381865afa925050508015610a0d575060408051601f3d908101601f19168201909252610a0a91810190610f50565b60015b610a3a57604051634c9c8ce360e01b81526001600160a01b03831660048201526024015b60405180910390fd5b600080516020610f868339815191528114610a6b57604051632a87526960e21b815260048101829052602401610a31565b6105a28383610b28565b306001600160a01b037f000000000000000000000000000000000000000000000000000000000000000016146109995760405163703e46dd60e11b815260040160405180910390fd5b6000807ff0c57e16840df040f15088dc2f81fe391c3923bec73e23a9662efc9c229c6a00610422565b610999610b7e565b610af98282610656565b6105c25760405163e2517d3f60e01b81526001600160a01b038216600482015260248101839052604401610a31565b610b3182610ba3565b6040516001600160a01b038316907fbc7cd75a20ee27fd9adebab32041f755214dbc6bffa90cc0225b39da2e5c2d3b90600090a2805115610b76576105a28282610c08565b6105c2610c7e565b610b86610c9d565b61099957604051631afcd79f60e31b815260040160405180910390fd5b806001600160a01b03163b600003610bd957604051634c9c8ce360e01b81526001600160a01b0382166004820152602401610a31565b600080516020610f8683398151915280546001600160a01b0319166001600160a01b0392909216919091179055565b6060600080846001600160a01b031684604051610c259190610f69565b600060405180830381855af49150503d8060008114610c60576040519150601f19603f3d011682016040523d82523d6000602084013e610c65565b606091505b5091509150610c75858383610cb7565b95945050505050565b34156109995760405163b398979f60e01b815260040160405180910390fd5b6000610ca7610abe565b54600160401b900460ff16919050565b606082610ccc57610cc782610d16565b610d0f565b8151158015610ce357506001600160a01b0384163b155b15610d0c57604051639996b31560e01b81526001600160a01b0385166004820152602401610a31565b50805b9392505050565b805115610d2557805160208201fd5b60405163d6bda27560e01b815260040160405180910390fd5b600060208284031215610d5057600080fd5b81356001600160e01b031981168114610d0f57600080fd5b60008060408385031215610d7b57600080fd5b82359150602083013567ffffffffffffffff81168114610d9a57600080fd5b809150509250929050565b80356001600160a01b0381168114610dbc57600080fd5b919050565b60008060408385031215610dd457600080fd5b82359150610de460208401610da5565b90509250929050565b600060208284031215610dff57600080fd5b5035919050565b634e487b7160e01b600052604160045260246000fd5b60008060408385031215610e2f57600080fd5b610e3883610da5565b9150602083013567ffffffffffffffff80821115610e5557600080fd5b818501915085601f830112610e6957600080fd5b813581811115610e7b57610e7b610e06565b604051601f8201601f19908116603f01168101908382118183101715610ea357610ea3610e06565b81604052828152886020848701011115610ebc57600080fd5b8260208601602083013760006020848301015280955050505050509250929050565b60005b83811015610ef9578181015183820152602001610ee1565b50506000910152565b6020815260008251806020840152610f21816040850160208701610ede565b601f01601f19169190910160400192915050565b600060208284031215610f4757600080fd5b610d0f82610da5565b600060208284031215610f6257600080fd5b5051919050565b60008251610f7b818460208701610ede565b919091019291505056fe360894a13ba1a3210667c828492db98dca3e2076cc3735a920a3ca505d382bbc02dd7bc7dec4dceedda775e58dd541e08a116c6c53815c0bd028192f7b626800a49807205ce4d355092ef5a8a18f56e8913cf4a201fbe287825b095693c21775a26469706673582212204358404c87f98b8cbf44cdf1567cde61453d34f30134a99fdbaadbbb5e2fdd7c64736f6c63430008170033",
  "linkReferences": {},
  "deployedLinkReferences": {}
}